:020000040800F2
:1000000000000820714801085D7B00085F7B000844
:10001000617B0008637B0008657B0008000000002E
:10002000000000000000000000000000677B0008E6
:10003000697B0008000000006B7B00086D7B0008F6
:10004000C1480108C1480108C1480108C148010868
:10005000C1480108C1480108C1480108C148010858
:10006000C1480108C1480108C1480108C148010848
:10007000C1480108C1480108C1480108C148010838
:10008000C1480108C1480108C1480108C148010828
:10009000C1480108C1480108C1480108C148010818
:1000A000C1480108C1480108C1480108C148010808
:1000B000C1480108C1480108C1480108C1480108F8
:1000C000C1480108C1480108C1480108C1480108E8
:1000D000C1480108C1480108C1480108C1480108D8
:1000E000C1480108C1480108C1480108C1480108C8
:1000F000C1480108C1480108C1480108C1480108B8
:10010000C1480108C1480108C1480108C1480108A7
:10011000C1480108C1480108C1480108C148010897
:10012000C1480108C1480108C1480108C148010887
:10013000C1480108C1480108C1480108C148010877
:10014000C1480108C1480108C1480108757B000881
:10015000C1480108C1480108C1480108C148010857
:10016000C1480108C1480108C1480108C148010847
:10017000C1480108C1480108C14801080000000049
:10018000C1480108C1480108C1480108C148010827
:10019000C1480108C1480108C1480108C148010817
:1001A000C1480108C1480108C1480108C148010807
:1001B000C1480108C1480108C1480108C1480108F7
:1001C000C1480108C148010800000000C1480108F9
:1001D000C1480108C1480108C1480108C1480108D7
:1001E000C1480108C1480108C1480108C1480108C7
:0801F000C1480108C1480108E3
:10020000044B05481B1A062B02D9044B03B11847AF
:10021000704700BF83020020800200200000000021
:1002200005490648091A891001EBD171491002D01D
:10023000034B03B118477047800200208002002062
:100240000000000010B5064C237843B9FFF7D8FF33
:10025000044B13B10448AFF300800123237010BD99
:100260008002002000000000FC49010808B5084B8E
:100270001BB108490848AFF300800848036813B968
:10028000BDE80840CCE7064B002BF9D09847F7E7CC
:100290000000000084020020FC49010880020020C8
:1002A0000000000070B50F4E0F4D761BB61018BF42
:1002B000002405D0013455F8043B9847A642F9D1F3
:1002C0000A4E0B4D761B14F099FBB61018BF002494
:1002D00006D0013455F8043B9847A642F9D170BDC9
:1002E00070BD00BF6073010860730108647301088A
:1002F00060730108024B0146186800F0CFB900BFD7
:1003000004000020024B0146186800F07FB900BFCE
:1003100004000020032A70B422D940EA01039B079D
:1003200011D003780C78A3421DD10A44013105E0B5
:1003300010F8013F11F8014BA34214D19142F7D1BB
:10034000002070BC70470D680668AE420C4603463C
:1003500001F1040100F1040008D1043A032AF2D8A3
:10036000002ADED1ECE7181B70BC70472146184606
:10037000D7E700BF844641EA000313F003036DD1C1
:10038000403A41D351F8043B40F8043B51F8043B58
:1003900040F8043B51F8043B40F8043B51F8043B5F
:1003A00040F8043B51F8043B40F8043B51F8043B4F
:1003B00040F8043B51F8043B40F8043B51F8043B3F
:1003C00040F8043B51F8043B40F8043B51F8043B2F
:1003D00040F8043B51F8043B40F8043B51F8043B1F
:1003E00040F8043B51F8043B40F8043B51F8043B0F
:1003F00040F8043B51F8043B40F8043B51F8043BFF
:1004000040F8043B403ABDD2303211D351F8043B9E
:1004100040F8043B51F8043B40F8043B51F8043BDE
:1004200040F8043B51F8043B40F8043B103AEDD24D
:100430000C3205D351F8043B40F8043B043AF9D29E
:10044000043208D0D2071CBF11F8013B00F8013B71
:1004500001D30B8803806046704700BF082A13D37E
:100460008B078DD010F003038AD0C3F10403D21A96
:10047000DB071CBF11F8013B00F8013B80D331F8CA
:10048000023B20F8023B7BE7043AD9D3013A11F84A
:10049000013B00F8013BF9D20B7803704B784370B5
:1004A0008B788370604670478842F0B50DD98B1801
:1004B00098420AD28418002A51D0224613F8014DDE
:1004C00002F8014D9942F9D1F0BD0F2A48D941EA0D
:1004D00000039B0746D100F1100401F110031546FB
:1004E00053F8106C44F8106C53F80C6C44F80C6C16
:1004F00053F8086C44F8086C103D53F8046C44F849
:10050000046C0F2D03F1100304F11004E8D8A2F1DC
:10051000100323F00F0302F00F0E1033BEF1030F90
:100520001944034421D91E1F0D467446043C55F856
:10053000047B46F8047F032CF8D8AEF1040424F0C1
:10054000030404342144234402F0030262B1013B5A
:100550000A4411F8014B03F8014F8A42F9D1F0BD6A
:100560000346F3E70346F2E7F0BD7246EEE700BF4D
:1005700070B4860746D0541E002A41D0CAB2034642
:1005800002E014F1FF343BD303F8012B9D07F8D1AF
:10059000032C2ED9CDB245EA05250F2C45EA054599
:1005A00019D903F110022646103E0F2E42F8105CB6
:1005B00042F80C5C42F8085C42F8045C02F110025C
:1005C000F2D8A4F1100222F00F0204F00F0410324E
:1005D000032C13440DD91E462246043A032A46F83A
:1005E000045BFAD8221F22F003020432134404F001
:1005F00003042CB1C9B21C4403F8011B9C42FBD17B
:1006000070BC704714460346C2E700BF91B151F871
:10061000043C0439002BB8BFC9181F4B1A68FAB143
:100620008A4230B40AD908680C18A24226D04A601F
:10063000196030BC70478B4203D81A465368002BB0
:10064000F9D1146815198D420DD006D808680C1818
:100650009C4219D04B605160EBE70C230360E8E744
:100660004A601960704709680C4411199942146076
:10067000DFD10ACB0C4453601460DAE71468526887
:100680004A6020440860D3E71C685B684B602044E4
:1006900008605160CDE700BF9C02002070B5CC1C03
:1006A00024F0030408340C2C38BF0C24002C06461C
:1006B0003BDBA14239D8274D296851B10A68121B8A
:1006C00004D436E01A68121B1AD519464B68002B61
:1006D000F8D16968002937D02146304601F056F834
:1006E000431C22D0C31C23F00305A84205D0291ABD
:1006F000304601F04BF8013017D02C602B4604E057
:100700000B2A0DD91A6013441C6003F10B0020F072
:1007100007001A1D821A02D05142995070BD70BD57
:100720008B420ED05A684A60EFE70C2333600020FA
:1007300070BD0B2A03D84A680B462A60E5E70B46D2
:10074000E0E70A460B46F8E7304601F01FF868601C
:10075000C2E700BF9C0200202DE9F0412DED028B85
:10076000B0EE408B84B018EE907A0D9E0E9C002F58
:100770009046BABFB1EE408B2D220022662E0D4668
:100780001A7040D0462E3ED026F02003452B27D0AD
:10079000B0EE480B03AA02AB019200930A460C9BF1
:1007A000022102F0CDF9672E26D118F0010F28D0D2
:1007B000B5EE408BF1EE10FA00EB05013BD0039B48
:1007C000994206D930255A1C03921D70039B994209
:1007D000F9D81B1A236004B0BDEC028BBDE8F08190
:1007E00003A902AB0135019100932A460C9BB0EEA0
:1007F000480B022102F0A4F9472ED9D118F0010FBD
:10080000D6D1039BE5E703AA02AB019200932A46E7
:100810000C9BB0EE480B032102F092F90278302ACB
:1008200000EB050309D00C9A11681944B5EE408B12
:10083000F1EE10FAC3D10B46CBE7B5EE408BF1EEEB
:1008400010FAF0D00C9AC5F1010111601944EDE7DE
:10085000F0B40029BABF49422D232B23092982B0C5
:100860000270437000F102042EDD0DF107052E46E3
:100870001B4F00E0164687FB0123CA17C2EBA302F9
:1008800002EB8203A1EB430101F130031146092978
:1008900006F8013C06F1FF32ECDC3031B31EC9B280
:1008A0009D4202F8011C19D91346264601E013F8AF
:1008B000011B06F8011B9D42F9D16B1C9A1A2244B8
:1008C000101A02B0F0BC704722463031302302F8D3
:1008D000023B6170101A02B0F0BC70472246F9E783
:1008E000676666662DE9F04F8DB00C4616461F46CA
:1008F000DDF85890054603F0B5FC036806931846EA
:1009000000F0BEFF002322680A93D9F80030079058
:100910000733D10594F8188023F0070340F1B9801C
:1009200093ED007B0833C9F8003084ED127BB0EE04
:10093000470BB0EEC07B9FEDC06BB4EE467BF1EE93
:1009400010FA62DDB5EEC00BF1EE10FA00F1148181
:10095000BB48BC4922F00402226002460323B8F1DE
:10096000470F98BF0A46059223614FF00009009790
:1009700033460BAA2146284600F03EFA01303FD00C
:100980002368590540F1F080B8F1650F40F2898085
:1009900094ED127BB5EE407BF1EE10FA00F0A781EA
:1009A000099B002B40F3EC810A9BD4F858904B45EF
:1009B000A8BF4B46002B9A4607DD059A31462846CC
:1009C000B84701301CD0D4F858902AEAEA7AA9EB4B
:1009D0000A03002B40F3458104F11A0B4FF0000885
:1009E00005E0A36DA3EB0A02424540F339810123E0
:1009F0005A4631462846B847013008F10108F0D17F
:100A00004FF0FF300DB0BDE8F08FB4EE400BF1EECB
:100A100010FA80F1D4806168481C00F0ED80B8F1D4
:100A2000670F00F09481B8F1470F00F0A98042F4FD
:100A3000806200230DF1280E09A822600393009024
:100A4000CDF80480CDF808E00DF123032846FFF728
:100A500083FE0590B8F1650F099B40F2BB80B8F1A9
:100A6000660F00F07A810A9A9A4200F3F1802268B8
:100A70002361D00701D55A1C2261A3654FF00009FC
:100A80009DF82330002B3FF472AF2D2384F84330C0
:100A90006DE793ED000B0833C9F8003084ED120BBD
:100AA00047E70A9A012A62DD0123059A3146284662
:100AB000B8470130A4D0079B069A31462846B8476C
:100AC00001309DD094ED127BB5EE407BF1EE10FA33
:100AD0000A9B14D1012B1BDD04F11A0A4FF0000808
:100AE00003E00A9B013B434512DD01235246314698
:100AF0002846B847013008F10108F2D180E7059A8D
:100B0000013B013231462846B84701303FF478AF07
:100B10004B4604F1500231462846B84701303FF4B5
:100B20006FAF2368E06813F0020F0B9B16D0C21A58
:100B3000002A13DD04F119094FF0000804E0E06811
:100B40000B9BC21A424509DD01234A46314628461D
:100B5000B847013008F10108F1D151E79842B8BF18
:100B600018460DB0BDE8F08F059A2369D3E7DB077F
:100B70009AD4059A0123C5E72D2384F84330E7E68C
:100B8000002900F0E78042F4806200230DF1280E76
:100B900009A8226003930090CDF80480CDF808E006
:100BA0000DF123032846FFF7D7FD0590099BD91CBB
:100BB00008DB6268934205DC4FF0670853E7224880
:100BC0002249C7E6A8F102085FFA88F8B8F1650F74
:100BD0003FF645AF013B1946424604F150000993E8
:100BE000FFF736FE0A9A8318012A8146236140F3F3
:100BF000C2800133236143E70621616042F48062D1
:100C000000230DF1280E09A8226003930090CDF86F
:100C10000480CDF808E00DF123032846FFF79CFD82
:100C2000B8F1670F0590C1D0B8F1470F7FF412AF4C
:100C3000BCE700BFAFF30080FFFFFFFFFFFFEF7FC8
:100C4000F8710108F471010800720108FC710108D3
:100C5000002BD4BFC3F1020101210A4422610CE739
:100C60009946099B0A9A934236DB2168C90733D417
:100C7000A2EB0908D31A9845A8BF9846B8F1000F0F
:100C80000CDD059B4B441A46314643462846B8477F
:100C900001303FF4B5AE0A9B099A9B1A28EAE8791D
:100CA000A3EB0903002B7FF73CAF04F11A0A4FF0C6
:100CB000000807E00A9B099A9B1AA3EB0903434526
:100CC0007FF72FAF0123524631462846B8470130FF
:100CD00008F10108EED193E6079B069A31462846B3
:100CE000B84701303FF48CAE0A9A099BC0E7012354
:100CF000404A31462846B84701303FF481AE099A50
:100D00000A9B9A4203DB2368DA077FF50BAF079B48
:100D1000069A31462846B84701303FF471AE0A9B27
:100D2000012B7FF7FEAE04F11A094FF0000804E032
:100D30000A9B013B43457FF7F4AE01234A46314607
:100D40002846B847013008F10108F1D158E60029DA
:100D50007FF419AF0121616050E7002B62683DDD2F
:100D600023611AB101321A44226186E62168C8075C
:100D70007FF583AEF6E72268D2077FF581AE38E7CC
:100D800001231C4A31462846B84701303FF438AEAB
:100D9000099B2BB90A9B1BB92368D8077FF5C2AE04
:100DA000079B069A31462846B84701303FF428AEE3
:100DB000099B002B1ADA04F11A094FF0000803E02E
:100DC000099B5B42434511DD01234A4631462846D3
:100DD000B847013008F10108F2D111E622B92168C3
:100DE000C90701D4012239E7023237E7059A0A9B85
:100DF00091E600BFE45601082DE9F0470C46914604
:100E00000A698968DDF820808A42B8BF0A46C9F8B5
:100E1000002094F8431006461F4611B10132C9F86C
:100E20000020236899065DD5D9F800200232C9F860
:100E30000020236813F0060F19461DD1E1688A1AB5
:100E4000002AD8BF194617DD04F1190A002505E06C
:100E5000E368D9F800209B1AAB420CDD012352460F
:100E600039463046C047013005F10105F0D14FF059
:100E7000FF30BDE8F087216894F84330003318BF95
:100E800001238A060AD5E1185A1C302081F8430054
:100E9000224494F8451082F84310023304F14302CF
:100EA00039463046C0470130E1D0236803F00603DD
:100EB000042B29D0A36822699342C8BF4FF00009D0
:100EC00030DD9B1A99441A34002501E04D4529D0A4
:100ED0000123224639463046C047013005F101055D
:100EE000F4D1C4E713F0060F08D1E168D9F8002067
:100EF0008A1A002AD8BF1946A6DCBDE794F8433009
:100F0000003318BF0123C9E7D9F80010E068A368CF
:100F10002269A0EB0109934229EAE979D1DCB9F110
:100F2000000FD0D10020BDE8F08700BF2DE9F043CD
:100F30000C46097E85B06E29064617460C989846E1
:100F400004F1430C55D00FD8632900F01B8100F247
:100F5000D68000295CD0582940F0E88084F84510FC
:100F60002268DFF860E213E0732900F0FD8000F2F0
:100F700089806F2900F0E480702940F0D7802268D2
:100F800042F0200222607823DFF83CE284F845300A
:100F90000368150603F1040100F1FF8055064BBFFD
:100FA0001B881B6801600160D00744BF42F020022B
:100FB0002260002B40F09580226822F020022260FF
:100FC0001021002284F843206068A0600028C0F24D
:100FD0008D80226822F004022260002B67D1002855
:100FE00040F08680654608296FD0ACEB050323618D
:100FF00011E023681A0600F1D38013F0400F036854
:10100000626903F1040101601B6814BF1A801A6051
:10101000002365462361CDF800803B4603AA2146A4
:101020003046FFF7E9FE013021D02A4623693946D0
:101030003046C04701301AD02368E06813F0020F31
:10104000039B19D0C21A002A16DD04F119090025E4
:1010500004E0E068039BC21AAA420DDD01234A4660
:1010600039463046C047013005F10105F1D14FF056
:10107000FF3005B0BDE8F0839842B8BF184605B010
:10108000BDE8F08375295BD078294FD122687AE7D3
:101090006168A1602D200029C3F1000384F843009A
:1010A00021DB22F00402DFF81CE122600A21654600
:1010B000B3FBF1F201FB123013461EF8002005F8D5
:1010C000012D002BF4D108298FD12368D9078CD5A5
:1010D000626823699A4288DC302305F8013C013DAF
:1010E00083E710216DE7DFF8DCE00A21002BDED179
:1010F0009EF8003084F8423004F1420573E7642919
:1011000001D0692912D122680368150603F1040190
:1011100052D455064BBFB3F900301B680160016023
:10112000002BB5DBDFF89CE00A214DE7012384F8B2
:101130004210236104F14205002384F843306AE73A
:1011400023681A0633D413F0400F036803F1040236
:1011500015BF1B881B68026002606F2914BF0A213B
:101160000821DFF860E02CE703686268191D016060
:101170001D680021284603F08BF800B3401B606017
:101180002061D9E703681A68191D0123016004F181
:10119000420584F842202361CEE701601B6803E723
:1011A00003686269191D01601B681A6030E70368F3
:1011B0001A1D02601B68D0E701601B68B0E7606819
:1011C000DEE700BF04720108187201082DE9F04F34
:1011D0000746886887B00C46411EB1F5AE7F1646BB
:1011E000059340F2A1816FF4AE7140F25D13421895
:1011F0000392A36018462368A04643F4F06348F8BE
:101200001C3B4FF0000A4546CDF80480CDF810A0F5
:10121000B846CDF808A0D146D3465746336819786A
:10122000A1F12B034E2B6ED8DFE813F0F9006D000F
:10123000F900F0006D004F005300530053005300BD
:10124000530053005300530053006D006D006D00B8
:101250006D006D006D006D006C016D006D006D0026
:1012600051014A016D006D0021016D006D006D009E
:101270006D000F016D006D006D006D006D000801C7
:101280006D006D006D006D0001016D006D006D0061
:101290006D006D006D006D006C016D006D006D00E6
:1012A00051014A016D006D0021016D006D006D005E
:1012B0006D000F016D006D006D006D006D00080187
:1012C0006D006D006D006D0001012368DA0500F10D
:1012D0003E8117EB0A0F16D1236823F4C0732360F5
:1012E0002970A068013573682169013B013801311B
:1012F000002BA0602161736040F3098133680133E2
:10130000336000288AD13A464746DDF80480B9F1B7
:10131000000F40F02D81013A012A40F2BD800AF110
:10132000FF33062B1AD8BAF1020F40F22681BAF128
:10133000030F13D0AAF1040A5FFA8AFA6FEA0A0AC5
:10134000AA44D4F87C3115F8011D32463846984736
:101350002369554503F1FF332361F2D12368D80592
:101360001A4620D5590500F12481236915F8011C7E
:10137000013B6529236105F1FF3A0DD045290BD0CA
:10138000D4F87C31324638469847236915F8021C58
:10139000013B2361A5F1020A3246D4F87C3138467C
:1013A00098472268554612F0100640F028812E70AA
:1013B000236803F4C063B3F5806F00F00B81029BD8
:1013C000002B40F0218141463846002200F032FBDC
:1013D000059920680B681A1D0A60820700F10B81CD
:1013E00010F0040040F00781B4EE400BF1EE10FA6B
:1013F0001D6880F11F81B7EEC00B85ED000AE36820
:1014000030460133E36007B0BDE8F08F23689A05EA
:101410007FF579AF23F420732360CB4660E7236820
:1014200018067FF570AF23F08003236058E7BAF108
:10143000070F7FF468AF4FF0080A51E7BAF1060FC3
:101440007FF461AF4FF0070A4AE7002F7BD1B9F173
:10145000000F00F0A280BAF1010F03D0BAF1040F1F
:101460007FF451AF0AF1010A5FFA8AFA38E7BAF15C
:10147000000F5CD1B9F1000F76D1236803F4E0606E
:10148000B0F5E06F00F0D0803A46013A012A4746B5
:10149000DDF804803FF663AFA8450CD2D4F87C3168
:1014A00015F8011D3246384698472369A84503F1CF
:1014B000FF332361F2D10126304607B0BDE8F08F3B
:1014C000BAF1020F7FF41FAF4FF0030A08E7236859
:1014D00003F4A060B0F5806F06D058057FF513AF18
:1014E000B9F1000F00F09B809A0503D4A9EB0B0221
:1014F0000292049523F4F06343F4C07323604FF029
:101500000009EDE6012F7FF4FEAE0227E8E6D4F8ED
:10151000803131464046984700287FF4F4AEA068F9
:1015200000287FF47BAEEEE60023039363E6BAF176
:10153000030F97D0BAF1050F7FF4E5AE0AF1010A67
:101540005FFA8AFACCE6022F85D10327C8E623F09A
:1015500080032360039B09F10109002B3FF4C3AE14
:10156000013B03930130BEE63A464746DDF804806E
:10157000236823F480732360CDE6A8459BD2D4F87A
:101580007C3115F8011D3246384698472369A84535
:1015900003F1FF332361F2D18DE7236803F4E060A8
:1015A000B0F5E06F7FF457AF23F4F06323600127B9
:1015B00096E645457FF67FAFD4F87C3115F8011DDE
:1015C0003246384698472369A84503F1FF33236123
:1015D000F2D170E7A9EB0B035A42002B3FF4F3AEB4
:1015E00004F26F139D4228BF04F5B77528461449CD
:1015F00000F006F9E7E61B6883ED000BFFE6002626
:10160000304607B0BDE8F08F049D29460A233246D4
:101610000131384601F06CF9029BC21AE0E73A4604
:101620004746DDF8048076E623F4F06323604FF04C
:10163000010A55E600F0BCF885ED000ADFE600BFC0
:101640002C7201080EB410B5044683B018B183693A
:101650000BB902F0B7F906A803460190059AA168F4
:10166000204603F041FD03B0BDE8104003B07047D1
:101670000FB410B50A4B1C6882B024B1A36913B92A
:10168000204602F09FF905A803460190049AA1683C
:10169000204603F029FD02B0BDE8104004B07047B9
:1016A0000400002000000000F8B5144B1C68A36B78
:1016B00005461BB100221D615A61F8BD1820FEF7D6
:1016C00019FE01220023A063C0E9042343F20E3374
:1016D00003800B2383810522034642814AF6CD37DE
:1016E00041F234264EF26D644DF6EC6100224780E3
:1016F0008680C48001811D615A61F8BD040000200C
:10170000F8B51F4B1C68A16B91B10A691D484B6964
:101710001D4C00FB02F004FB0300A2FB042301327A
:10172000034443F1000323F00040C1E90423F8BD62
:101730001820FEF7DFFD10A3D3E900230146A063C4
:101740000126002743F20E354AF6CD34C0E904677E
:1017500041F234204EF26D674DF6EC660D804C8000
:1017600005250B248880CF8006480E814D818C8111
:10177000C1E90423F8BD00BF2E7F954C2DF45158CC
:10178000040000202DF451582D7F954C38B5074C9E
:10179000002305460846236004F07CFD431C00D06E
:1017A00038BD2368002BFBD02B6038BD108500208E
:1017B0009FED010A704700BF0000C07F0CB4F0B578
:1017C0009DB022AC029154F8042B069123466FF091
:1017D00000454FF402774FF6FF7602A90194ADF869
:1017E000147004950795ADF8166003F029FB029B71
:1017F00000221A701DB0BDE8F04002B0704700BF73
:101800000EB4F0B59CB021AB0F4953F8042B0193F3
:1018100005466FF00044086802954FF402774FF6D2
:10182000FF7602A90695ADF8147004940794ADF8FC
:10183000166003F005FB029B00221A701CB0BDE885
:10184000F04003B0704700BF04000020000000001B
:101850000000000000000000000000000000000088
:101860000000000000000000000000000000000078
:101870000000000000000000000000000000000068
:1018800090F800F06DE9024520F007016FF0000CC0
:1018900010F0070491F820F040F049804FF0000468
:1018A0006FF00700D1E9002391F840F000F1080043
:1018B00082FA4CF2A4FA8CF283FA4CF3A2FA8CF37B
:1018C0004BBBD1E9022382FA4CF200F10800A4FAE2
:1018D0008CF283FA4CF3A2FA8CF3E3B9D1E9042336
:1018E00082FA4CF200F10800A4FA8CF283FA4CF36D
:1018F000A2FA8CF37BB9D1E9062301F1200182FA27
:101900004CF200F10800A4FA8CF283FA4CF3A2FA2C
:101910008CF3002BC6D0002A04BF04301A4612BA3A
:10192000B2FA82F2FDE8024500EBD2007047D1E93D
:10193000002304F00305C4F100004FEAC50514F0CC
:10194000040F91F840F00CFA05F562EA05021CBF9D
:1019500063EA050362464FF00004A9E7002A41D07C
:1019600040EA010313F00303F0B425D1032A23D97D
:1019700004680D68AC421FD1043A38D0A4F1013597
:1019800025EA040414F0803F2ED1043004310FE026
:1019900050F8043B0E68A3F10134B34224EA030477
:1019A00001F1040126D1043A21D014F0803F1BD16B
:1019B000032A07460D46EBD805780C78AC4202F1B5
:1019C000FF331AD183B114B90EE06BB17AB110F8BC
:1019D000012F11F8014FA24203F1FF33F5D0101B84
:1019E000F0BC7047104670470020F0BC70471046AE
:1019F000F0BC704729463846DEE72A46EFE700BFCD
:101A000070B504460D46164645EC104B02F0A8FF93
:101A10007EB1C5F30A53C3F16B03002B09DD1B052F
:101A200003F17F51002001F5401141EC170B20EE2E
:101A3000070B70BD2DE9F04F2DED0E8B99B08A4646
:101A400000219346149100220021CDE90412CDF823
:101A50004CA0814653461A4613F8014B2D2C00F238
:101A60004181DFE814F02E003F013F013F013F01BB
:101A70003F013F013F013F01DF00DF00DF00DF00EA
:101A8000DF003F013F013F013F013F013F013F01B7
:101A90003F013F013F013F013F013F013F013F0146
:101AA0003F013F013F01DF003F013F013F013F0197
:101AB0003F013F013F013F013F013F0149003F011D
:101AC000DC009FEDC37B8DED027BBBF1000F0CD0E2
:101AD000002253460792CBF80030079B2BB19DEDB7
:101AE000027BB1EE477B8DED027B9DED020B19B0C1
:101AF000BDEC0E8BBDE8F08F0023079302F10108C7
:101B0000CDF84C805478002CDBD0302C00F0F080E5
:101B100000230993A4F130030027092B3E463D46DC
:101B2000434619D8082DC8BF07EB870706EB860286
:101B300003F1010304EB42021393C4BF04EB470417
:101B4000A4F130071C78D8BFA2F13006A4F130020E
:101B5000092A05F10105E5D94846089302F082FB00
:101B600001680291484602F07DFB0068FFF788FE9D
:101B7000089B029902461846FFF7F0FE002800F085
:101B800048810020844602902B46652C00F0C480DA
:101B9000452C00F0C1800022002B45D007EE906A52
:101BA000B8EE677B102B19468DED027BA8BF102184
:101BB0000846A2EB0C04DDE90212002D08BF1D4609
:101BC0000928CDE904120EDD834A02EBC00212EDB2
:101BD000126B9DED025B07EE907AB8EE677BA5EE87
:101BE000067B8DED047B0F2B00F33A81002C00F077
:101BF0000B8140F31F85162C00F38584764B03EB95
:101C0000C40494ED007B9DED046B27EE067B8DED07
:101C1000027BBBF1000F3FF460AF139B5BE7012336
:101C200007936BE7139316E7002840F0C980099BE0
:101C3000002B40F0C580029B002B7FF442AF493C53
:101C4000252C3FF63EAF01A353F824F0DD1D00081C
:101C5000C31A0008C31A0008C31A0008C31A0008F0
:101C6000D3220008C31A0008C31A0008C31A0008C8
:101C7000C31A0008C31A0008C31A0008C31A0008D0
:101C8000C31A0008C31A0008C31A0008C31A0008C0
:101C9000C31A0008C31A0008C31A0008C31A0008B0
:101CA000C31A0008C31A0008C31A0008C31A0008A0
:101CB000C31A0008C31A0008C31A0008C31A000890
:101CC000C31A0008C31A0008C31A0008DD1D000863
:101CD000C31A0008C31A0008C31A0008C31A000870
:101CE000D32200080023302C904607937FF410AFD6
:101CF00098F80130582B00F0FD82782B00F0FA8222
:101D00004346013313931C78302CFAD09846002CAC
:101D100056D001230993FDE6002B00F01082DDF878
:101D20004CA00AF1010213929AF801402B2C00F00A
:101D300053822D2C00F0488200220892A4F1300238
:101D4000092A00F21682302C05D1139A013213921F
:101D50001478302CFAD0A4F13102082A3FF61BAFD8
:101D6000139A0B92511C303C13910A945478A4F1AD
:101D7000300EBEF1090F0FD80A9A0131139102EB10
:101D8000820204EB42020C78A4F1300EBEF1090F7E
:101D9000A2F13002F1D90A920B9A891A082900F3AC
:101DA000AA830A9A44F61F618A42A8BF0A46089984
:101DB00000293FF4F1AE5242002B7FF4EFAE33E73F
:101DC0009FED037B8DED027B23E700BFAFF3008027
:101DD0000000000000000000E04C010813A8CA4900
:101DE00002F036F900283FF46CAE139BC749013B63
:101DF00013A8139302F02CF910B9139B013313931A
:101E0000C34B0593002304939DED047B8DED027B72
:101E1000FFE60290484602F025FA0068FFF730FD21
:101E20001399029A0B1813930C5C002D40F0BA81A1
:101E3000302C284606D1013313931C78302C00F146
:101E40000100F8D0A4F13103082B40F2B283652CD5
:101E50004FF0000C00F0718101226346029297E678
:101E60001A1A2244002A40F3F98212F00F000AD015
:101E7000A84901EBC0019DED046B91ED007B27EEBD
:101E8000067B8DED047B32F00F0240F0AD81002225
:101E9000089200962A464146484602F0D7FA0E902C
:101EA000002800F06A820027002CC4F100039FED97
:101EB0008EABA8BF3B469FED8E9B9FED8FBB9FEDEA
:101EC000908B0A9324EAE473CDF83CB009933D4625
:101ED0008346DBF80410484602F02AFA82460028BE
:101EE00000F05A82DBF810209DED047B0232920054
:101EF0000BF10C010C308DED027BFEF73BFA9DEDF2
:101F0000020B16AA15A9484602F0B6FD1490002847
:101F100000F0A1830121484602F036FB0546002867
:101F200000F03A82159A002AC0F211810A9B099E9C
:101F300003EB0208089B169CD21A2244764B013A06
:101F40009A42C4F1360480F2C880991A1F29A4EB82
:101F5000010400F30181012202FA01F30C93002332
:101F60000D932644089B4444A04542461E44A8BF06
:101F70002246B242A8BF3246002A03DDA41AB61A8E
:101F8000A8EB02080A9BBBB129461A46484602F054
:101F900097FB0546002800F0FF810146149A484649
:101FA00002F0FCFA002800F0F7810B9014994846E3
:101FB00002F0F2F90B9A1492002C08DD22461499D3
:101FC000484602F0D9FB1490002800F04483099B96
:101FD00043B15146099A484602F072FB82460028F6
:101FE00000F0DA81002E08DD51463246484602F004
:101FF000C3FB8246002800F0CF81B8F1000F08DD56
:1020000029464246484602F0B7FB0546002800F044
:10201000C38152461499484602F01EFC0746002828
:1020200000F0BA810023C468C360294602F0F8FBBF
:102030000028C0F2138300F062832946384602F07C
:1020400079FDB0EE007BB4EEC70BF1EE10FA69D863
:10205000002C00F09880B7EE00DB304B0598002292
:102060002B49DFF8BCE000EA0106764500F05E810E
:10207000089959B1B6F1D46F08D8B4EEC8DBF1EEC7
:1020800010FA40F2158103F1D6618B1B9DED020B16
:1020900043EC1C2B02F064FC9DED027BACEE007B5C
:1020A00053EC172BCDE904231A46089B23B9184B90
:1020B00013409E4200F093811499484602F06CF957
:1020C0005146484602F068F92946484602F064F94C
:1020D0003946484602F060F9FBE600230D930123E0
:1020E0000C933EE7AFF300809535A094FFFFDF3FF0
:1020F00035E5AF350000E03F9535A094FFFFCF3FB9
:102100000000C0FFFFFFDF41347201083872010890
:102110000000F07FE04C010802FCFFFF0000F03FF0
:102120000000E07FB6EE00DB20EE0DDB44BBB1EE3D
:102130004D7B53EC172B059892E70123029300285F
:1021400050D1099B002B3FF4BCAC0346E7E5099B4B
:10215000DDF828809E1AEDE6C2F17F4202F57F028B
:1021600002F57B420121E23201FA02F30D930C9158
:10217000F7E6CDF84CA00022002B7FF40FAD53E51D
:1021800053EC1D2BD7E7DDE9041200297AD0DDE9F5
:102190000412012900F0D8811046B7EE00DB0022BE
:1021A000A54B5DE7104694462B46A4F13002092A60
:1021B00015D8411C9646002A40F0D781084613994D
:1021C0004A1C13924C78F0E7012208920AF10202AD
:1021D00013929AF80240B1E500220892F6E7012234
:1021E0000292D2E400239AE5B2F59A7F00F3C5800B
:1021F0001211012ADFF860E240F3C9829DED047BF1
:102200008DED027B00277146384612F0010F00F178
:1022100001004FEA620208D09DED026B91ED007B58
:1022200026EE077B8DED027B0127012A01F10801D3
:10223000EBD1002F40F01D83059AA2F15472059254
:102240000EEBC00090ED007B9DED046B27EE067B4E
:1022500052EC171BCDE9041222F00042120D77490F
:10226000059812058A4200F28880A1F580118A4201
:1022700040F27982724A0592002208924FF0FF32B2
:10228000049206E6C2F313031046002B85D1B7EE85
:10229000007BB4EEC70BF1EE10FA00F15F82B6EEF0
:1022A00000DB20EE0DDBB1EE4D7B53EC172BD7E6B8
:1022B000BCEECD0B10EE103A002B00F03F81B8EED3
:1022C00040DB002C40F03D81B1EE4D7B53EC172BF1
:1022D000D9E613A85B4901F0BBFE00283FF4F1AB3F
:1022E000139B1B78282B00F0A782574B05930023E4
:1022F000049389E5079A019214AB0093534A15ABF6
:1023000013A9484601F01AFC10F0070504463FF4F3
:1023100057AD062D40F05A819FED457B08F1010332
:10232000139300238DED027B079372E40B91A0F1D0
:10233000547105919DED04EBB0EE4E0B43EC1C2B5C
:1023400002F00EFBACEE00EB52EC1E1BCDE90412CA
:102350000B993F4B01EA0200DDE902129842CDE9F8
:10236000101240F2CB8003F154739A4211D0344BD7
:1023700005934FF0FF3304939EE6364B05930022FE
:1023800004929DED047B22238DED027BC9F8003081
:102390003FE4109B0133EAD1DDF83CB014982D4B9B
:1023A0000593002204929DED047B8DED027B222398
:1023B000C9F800300146484601F0EEFF5146484654
:1023C00001F0EAFF2946484601F0E6FF0E9948462B
:1023D00001F0E2FF3946484601F0DEFF19E4BDEEA8
:1023E000CD7BB8EEC77B3DEE477B94B9049B83B9A8
:1023F000C2F313026AB9B4EECB7BF1EE10FA7FF5AB
:102400005BAE9DED047BDDF83CB014988DED027B56
:10241000D0E7B4EECA7BF1EE10FAF2D4B4EEC97B89
:10242000F1EE10FA7FF748AEEBE700BFAFF30080A4
:1024300000000000000000000000F0BF0000A07CD1
:10244000FFFFEF7F407201080000F8FF204B0108FA
:10245000FFFF9F7C0000F07FD04D01083FF417ADD7
:10246000524212F00F000AD0B74901EBC0019DEDB6
:10247000045B91ED007B85EE076B8DED046B121113
:102480003FF405AD1F2A2DDC12F01001089100F079
:10249000C481002A40F3AC816A2108919DED047B40
:1024A0008DED027BA9490020D70708D59DED026B71
:1024B00091ED007B26EE077B8DED027B0120521013
:1024C00001F10801F0D1002840F0E781089A002AC4
:1024D00040F090819DED047BB5EE407BF1EE10FA6B
:1024E0007FF4D7AC9FED967B2223C9F800308DEDA9
:1024F000027BFFF78EBB44F61F6258E4059B03F195
:1025000054720592D1E5C3F1250294423FF7A8AC7D
:10251000C3F10F038C4AE11A02EBC10102EBC302C3
:1025200091ED006B92ED007B9DED045B27EE057B4A
:1025300027EE067B8DED027BFFF76BBBB7EE00DB72
:10254000BFE653EC1D2B9EE5DDE904231846002B66
:102550007FF423AEDDF83CB014989FED797B222305
:10256000C9F800308DED027B24E701298C4418BFA7
:10257000C01804D182E14E0084420CD02346082BBF
:1025800003F1010406EB8601F5DD102CDCBF07EB3F
:1025900087077F00F0E713990233082C10DD102B1A
:1025A000D8BF07EB87074FF00000D8BF02EB470703
:1025B00006E61399A4F1300E00F1010C88460123C0
:1025C00006EB86060EEB46060020F9E5149A3AB1B2
:1025D000352116A802F0F2FA4846149901F0DCFE03
:1025E000013D042D06D8DFE805F0190D031219008E
:1025F000574B059323077FF507AC059B43F000433A
:10260000059301E4169B0493179B0593F2E76FF083
:10261000004305934FF0FF330493EBE7159A179BA4
:102620001699049102F2334223F4801343EA0253D1
:102630000593DFE714F1160FFFF612AC424BA3EB44
:10264000C40494ED007B9DED045B85EE076B8DED7E
:10265000026BFFF7DEBADDF83CB0A0E6DDF83CB077
:102660008CBBDDE9041271BBC2F31303164653BBE6
:1026700022F000431B0D1B05B3F1D66F23D97B69F4
:1026800013B93B69012B1EDD39460122484602F091
:1026900073F82946074602F0C3F8002813DD089BAB
:1026A000002B40F0DB802A4B3340A3F580136FEA08
:1026B00013536FEA035305934FF0FF3304939DEDDB
:1026C000047B8DED027B089BBBB1224B1193002351
:1026D00010939DED027B9DED106B27EE067B8DED3B
:1026E000027BDDE90234CDE9043434B9049B23B91B
:1026F00022231498C9F800305CE614985AE6DDF8F5
:102700003CB0002C34D0059A134BC2F3130199420C
:102710004ED00D9B002B35D0059A1342D3D0DDE966
:102720000401089A002C34D0FFF76AF99DED027B72
:1027300037EE007B8DED027BC5E700BFAFF3008075
:102740000000000000000000E04C0108484B0108B8
:102750000000F07F00005039FFFF0F000022514BB6
:10276000B6EE00DB7CE400F154720592FFF78FBBFC
:10277000DDE90412C2F313031646002BC9D1002968
:10278000C7D18CE70C9B049A13429CD0C7E700206A
:1027900052E5FFF735F99DED027B37EE407BB5EE54
:1027A000407BF1EE10FA8DED027B3FF4D5AE8AE767
:1027B000089B0499ABB33C4B1340B3F1D46F30D8B2
:1027C0001B0DC3F16B034FF0FF3000FA03F38B4294
:1027D0009FD136498A4255D0334B134003F58013BD
:1027E0000593002304939DED047B8DED027B6AE746
:1027F0006A220892DDE90401C1F30A52C2F16B02B8
:10280000002A7FF767AE1F2A0EDD0020342A0490CD
:102810003BDD4FF05C7205925CE6002A3FF73EAE6E
:1028200058E64FF0FF33D2E74FF0FF3101FA02F2E2
:102830000499114004914DE613A816AA1C4901F011
:102840001FFC05287FF451AD179B43F0FF4343F471
:10285000E0030593169B0493FFF7D6BA124B33405F
:10286000B3F1D66F3FF721AFB3F15C7F3FF72DAFE8
:1028700072E6DDE90212CDE90412DDE41C4613998B
:1028800001338AE60133A7D188E5203A4FF0FF30C3
:1028900000FA02F20A4005921CE6DDE90212CDE9D7
:1028A000041213E60000E0BF0000F07FFFFFEF7F9F
:1028B000344B0108024B0A4601461868FFF7BAB8C4
:1028C0000400002008B5094B0A4601461868FFF7C6
:1028D000B1F8B4EE400BF1EE10FA02D6B7EEC00B31
:1028E00008BD0020BDE80840FEF762BF04000020DC
:1028F0002DE9F04F414C83B0D4F800C00190084658
:1029000000E02846054615F8014B0CEB04067778E5
:1029100017F00807F5D12D2C4BD02B2C04BF2C78A9
:10292000851C1BB1102B53D0994603E0302C5CD092
:102930000A239946002F0CBF6FF0004A4FF0004A5F
:102940004FF0000EBAFBF9F8704609FB18AB0EE029
:10295000303CA3421BDDBEF1FF3F06D0404525D8E9
:1029600022D009FB00404FF0010E15F8014B0CEB93
:102970000406767816F0040FEAD116F0030606D0A6
:10298000012E14BF57263726A41BA342E3DCBEF159
:10299000FF3F12D007B140421AB1BEF1000F15D16E
:1029A000116003B0BDE8F08F5C45DADD4FF0FF3E0B
:1029B000DBE72C780127851CB3E7019922230B6004
:1029C0005046002AEDD0691E5046E9E78246FAE7F4
:1029D000302CA9D1287800F0DF005828A4D14FF07E
:1029E00010096C784B460235A4E72B7803F0DF031F
:1029F000582BF4D0082399469CE700BF0000002024
:102A000010B4044C13460A46014620685DF8044B96
:102A1000FFF76EBF0400002002690B69934200F3C8
:102A20008D802DE9F04F03F1FF3801F1140700F11B
:102A3000140B57F828205BF828304FEA880483B03D
:102A40000132B3FBF2F90BEB0403009407EB040A29
:102A50000193B9F1000F39D000252E46BC46DE4661
:102A60005CF8044BDEF80030A2B209FB0255220CE0
:102A70002C0C09FB0242ADB2751B96B2C6EB134695
:102A800015FA83F306EB23469BB243EA0643E2457D
:102A90004FEA12454EF8043B4FEA2646E0D2009B2F
:102AA0005BF8033093B9019C231F9B450CD254F86B
:102AB000043C4BB9A4F1080302E01A68043B1AB9BC
:102AC0009B4508F1FF38F8D3C0F81080044601F0A8
:102AD000A7FE00282EDB09F101095D46002357F807
:102AE000041B28688AB29A1A0B0C12FA80F2C3EB04
:102AF000104303EB224392B242EA0342BA4545F83F
:102B0000042B4FEA2343EAD25BF828200BEB88031F
:102B100082B91A1F93450BD253F8042C42B9083BD3
:102B200002E01A68043B1AB99B4508F1FF38F8D354
:102B3000C4F81080484603B0BDE8F08F002070470D
:102B40002DE9F04F456A93B004465BEC10AB019160
:102B500005920493002D00F0AB81296849B16A68A1
:102B60004A60012393408B6001F016FC636A0022E7
:102B70001A60BBF1000F5D463DDB1C9A0023136019
:102B8000C54BAB4318D04BEC17ABB5EE407BF1EE29
:102B900010FACDE902AB35D1049A012313601D9BD5
:102BA000002B00F0B780BD4B1D9A03F1FF38136076
:102BB000404613B0BDE8F08F049A42F20F731360E1
:102BC000BAF1000F0FD1C5F3130565B91D9BDFF8EE
:102BD000D482002BECD008F108031D9A4046136004
:102BE00013B0BDE8F08F1D9BDFF8BC82002BDFD057
:102BF00008F10303F1E71C9A01232BF00045136051
:102C0000AB46BDE711A910AA9DED020B204601F0CD
:102C100033FF290D814661D0DDE90223C3F31300A0
:102C200040F07F53002510980995A1F2FF3143F43D
:102C3000401343EC172BB7EE086B9FED914B37EE2B
:102C4000466B9FED917B9FED925BA6EE047B06EEBB
:102C5000901AB8EEE66BA6EE057BFDEEC76BB5EEFF
:102C6000C07BF1EE10FACDED026A00F12F81029DDA
:102C7000162D52D88A4B03EBC50393ED007B4BEC2A
:102C800016ABB4EEC67BF1EE10FA40F386816B1EF4
:102C9000029300230B93411A4F1E00F1128100236F
:102CA0000793029B002BC0F21D811F440A9300234F
:102CB0000693019B092B33D8052B40F36685043B13
:102CC000019300230C93019B023B032B00F26685CA
:102CD000DFE813F057038A026203DE0310981199AC
:102CE000014401F23243202B40F35A81C3F14003E7
:102CF00001F212429D402AFA02F32B4307EE903A6A
:102D0000B8EE677B012553EC172B0139A3F1F8735B
:102D100009958EE7DFF894814AE701230B93BAE720
:102D2000666A002575602946204601F001FB636A4A
:102D30003060D3F8008005954FF0FF3601230195F0
:102D40000E960893119B002B79DB029A0E2A76DCF3
:102D5000534B03EBC20393ED004B059B002BC0F2DA
:102D600035834BEC17AB87EE046BBDEEC66B012EC3
:102D700016EE103A03F13003B8EEC65B08F1010B12
:102D800088F80030A5EE447B24D0B2EE043B27EE59
:102D9000037BB5EE407BF1EE10FA18BFB1EE442B89
:102DA00007D137E027EE037BB5EE407BF1EE10FA5A
:102DB00030D087EE046BBDEEC66B16EE103A3033A2
:102DC0000BF8013BABEB0803B342B8EEC65BA2EED7
:102DD000057BE7D137EE077BB4EEC74BF1EE10FA77
:102DE00008D4B4EE474BF1EE10FA13D116EE103AB8
:102DF000D9070FD51BF8013C0BF1FF3204E09045D9
:102E000000F0DE8312F8013D392B02F1010BF6D000
:102E1000013313704946204601F0BEFA0022029B9E
:102E20008BF80020049A013313601D9B002B3FF4A4
:102E3000BFAE4046C3F800B013B0BDE8F08F089AAB
:102E4000002A58D0019A012A40F3E4820699721EA2
:102E50009142C0F243838B1A0C93002E079BC0F261
:102E60001F8409933346079A01211A44204607928A
:102E70001F4401F089FB054642E000BFAFF300802C
:102E800061436F63A787D23FB3C8608B288AC63F70
:102E9000FB799F501344D33F0000F07FE5560108B3
:102EA000E04C01084472010850720108E456010820
:102EB0001020FDF71FFA6062456085600560C560FF
:102EC00057E6C1F1010307930027EAE6B8EEE66B87
:102ED000B4EE467BF1EE10FA3FF4C9AE029B013B23
:102EE0000293C4E6079A029BD21A5B420693002320
:102EF00007920A93DDE6069B0C93089D079B0993B6
:102F0000099900290B460ADD002F08DDB942079A0E
:102F1000A8BF3B46D21A0792CA1A0992FF1A069B0B
:102F2000EBB1089B002B00F06E820C9B002B11DD97
:102F30001A462946204601F0C3FB4A46014605468B
:102F4000204601F02BFB49460F90204601F024FA61
:102F50000F9B9946069B0C9A9A1A40F055820121C4
:102F6000204601F011FB0A9B0690002B1FDD014655
:102F70001A46204601F0A4FB019B0690012B40F36A
:102F80000E8200230C93069A136902EB83031869DF
:102F900001F0AAFAC0F1200013E000230B937AE6B7
:102FA000C3F120030AFA03F307EE903AA8E6019B67
:102FB000012B40F33A8200230C930A9B0120002B43
:102FC000E1D1384410F01F0000F09F80C0F12003D1
:102FD000042B40F3DE83C0F11C00079B03440793DE
:102FE000099B034409930744079B002B05DD4946D1
:102FF0001A46204601F0C0FB8146002F05DD3A4607
:103000000699204601F0B8FB06900B9B002B7ED161
:10301000002E40F31A82089B002B00F09280099B3F
:10302000002B05DD29461A46204601F0A5FB054682
:103030000C9B002B40F0CD822F46013E08EB06038F
:1030400008930AF0010309934646CDF82880DDF87D
:10305000188048464146FFF7DFFC2946824648462D
:1030600001F0DEFB414683463A46204601F0F4FB80
:10307000C3680AF130080146002B40F0E181079057
:10308000484601F0CDFB079A05901146204601F015
:1030900083F9059B33B9019A22B9099B002B00F0F3
:1030A0004983019BBBF1000FC0F2338205D1019A25
:1030B0001AB9099A002A00F02C82002B00F39D8295
:1030C000089B86F8008006F1010A9E42D34600F074
:1030D000A382494600230A22204601F079F9BD4225
:1030E000814629464FF000034FF00A02204600F0C7
:1030F000A18101F06DF93946054600230A222046D8
:1031000001F066F956460746A1E71C2065E70699D7
:10311000484601F085FB0028BFF67AAF029E49467B
:1031200000230A222046013E029601F051F9089B35
:103130008146002B40F011830E9B002B40F3198336
:103140001E464746DDF818A002E001F041F981462D
:1031500051464846FFF760FC00F1300E07F801EBDE
:10316000A7EB0803B3424FF00A024FF000034946B1
:103170002046EADBCDF804E0012EACBF08EB060BDD
:1031800008F1010B9A4649460122204601F0F4FA63
:103190000699814601F044FB002840F3DB811BF8CF
:1031A000012C0BF1FF3304E0434500F06A8113F872
:1031B000012D392A03F1010BF6D001321A7006995C
:1031C000204601F0E9F8002D3FF424AEBAF1000FDB
:1031D00005D0AA4503D05146204601F0DDF8294626
:1031E000204601F0D9F815E600230893029B059AC2
:1031F00013445E1C012EB6460E93B8BF4FF0010E6D
:103200003546D4F824800021BEF1170FC8F8041009
:103210000BD9012204235B0003F114007045114611
:1032200002F10102F7D9C8F80410204601F080F835
:10323000636AC8F800000E2DD3F800803FF682AD17
:103240000C9B002B3FF47EAD02980028CDE90CAB1F
:1032500040F39681C84A00F00F0302EBC30203114A
:1032600092ED007BDA0640F14281C44A92ED086B90
:103270004BEC14AB03F00F03032184EE065B5BB150
:10328000BE4ADD0704D592ED006B013127EE067BC7
:103290005B1002F10802F4D185EE076B0B9B3BB18A
:1032A000B7EE007BB4EEC76BF1EE10FA00F10A82C4
:1032B000B1EE0C5B07EE901AB8EEE77BA6EE075B6B
:1032C00051EC150BA1F15071002E00F0F080029A24
:1032D0003546089B002B00F0AA81B6EE003BA64BBA
:1032E00003EBC50313ED024BBDEEC67B83EE045B1F
:1032F00017EE103A41EC140B3033DBB235EE445B81
:10330000B8EEC77B36EE477BB4EEC75BF1EE10FA42
:1033100088F8003008F1010B31DCB7EE003B33EEEA
:10332000476BB4EEC65BF1EE10FA00F3FE81012D9F
:1033300000F01D81B2EE044B08EB05010AE033EE0C
:10334000476BB4EEC56BF1EE10FA00F1EE818B45E0
:1033500000F00D8127EE047B25EE045BBDEEC76B0C
:1033600016EE103A3033DBB2B8EEC66B37EE467B62
:10337000B4EEC57BF1EE10FA0BF8013BDFD50292FB
:1033800048E500230893059B002B40F3B4809E463C
:103390001D460E931E4634E701230893F3E7BAF166
:1033A000000F7FF4EEADCBF31303002B7FF403AEDD
:1033B0002BF000431B0D1B05002B00F0B981079B70
:1033C00001330793012301370C93F6E5002E3FF7F5
:1033D000C8AC7FD1B1EE047B24EE074B4BEC17ABAE
:1033E000B4EEC74BF1EE10FA3546069640DB059B6E
:1033F000DB430293C3460699204600F0CDFF002D23
:103400003FF408ADEBE6069A4946204601F058F92C
:103410008146A4E5099A002A00F04781069A0C9299
:10342000079A099203F233431DE5BAF1000F7FF4C6
:10343000C2ADB8E700F0CCFF56460546074606E6A3
:10344000204600F0A9FF01232CE6019B022B7FF709
:10345000E2AD002ECBD1334606990522204600F07E
:10346000B7FF01460690484601F0DAF90028BEDDB4
:10347000029A31230132029288F8003008F1010BE0
:10348000B9E7029A31230132029288F8003096E6B9
:1034900001230893AAE607EE901AB1EE0C5BB8EE92
:1034A000E77BA6EE075B51EC150BA1F15071B1EE75
:1034B000047B36EE477B41EC160BB4EEC67BF1EE97
:1034C00010FA00F3B080B1EE466BB4EEC67BF1EEBD
:1034D00010FA4CD5002306931D4688E7069B0A99EF
:1034E0000692D31A194400230A910C93B5E49DED7A
:1034F0000C5B0221C3E6656A00216960204600F08A
:1035000017FF636A28600126D3F800800E9605969F
:1035100096E6002BCDF80480DDF8288012DD4946C0
:103520000122204601F028F90699814601F078F938
:10353000002840F30B81019B392B00F0DF800AF15A
:10354000310301939DF804303370AA4606F1010B54
:103550003D4634E604D1019BDB0701D51FE69346C7
:103560001BF8013C302B0BF1FF32F8D027E6DDE9E8
:103570000CABFFF7E7BB00BFE04C0108D04D0108E2
:1035800000F09C80029B914A5B4203F00F0102EB2A
:10359000C10292ED006B9DED0C7B1B1127EE066BBB
:1035A00000F0EC808A4A0221D80704D592ED007B16
:1035B000013126EE076B5B1002F10802F4D16DE6D3
:1035C000302388F80030029B013302931BF8013C42
:1035D0001EE46968204600F0ABFE2B690233074603
:1035E0009A0005F10C010C30FCF7C4FE39460122AB
:1035F000204601F0C1F807461FE54346392BCDF8B8
:103600000480DDF8288079D0019B0133AA4633700D
:1036100006F1010B3D46D2E5CDF80480AA46DDF85F
:1036200028803D46AFE5002306931D4620E7674B03
:10363000BDEEC67B03EBC50313ED024B17EE103A4C
:1036400041EC150B3033012DB8EEC77B24EE054B52
:1036500088F8003008F1010B36EE477B12D0B2EE4D
:10366000045B08EB050127EE057BBDEEC76B16EE8C
:10367000103A30330BF8013B8B45B8EEC66B37EE92
:10368000467BF0D1B6EE006B34EE065BB4EEC75B62
:10369000F1EE10FA39D502921BF8013CFFF7ACBBF2
:1036A0009B1B09930023FFF7DEBB069A109B0C922D
:1036B000079A0992C3F13603FFF7D5BB9DED0C6B5A
:1036C0000221EBE5002E3FF4E6AE0E9B002B7FF7C8
:1036D0004EAFB2EE044BB1EE0C5B013107EE901A27
:1036E00026EE046BB8EEE77B029AA6EE075B51EC80
:1036F000150B013A1D46A1F15071EAE53922AA469F
:1037000032703D4606F1010B4BE536EE446BB4EEEC
:10371000C76BF1EE10FA01DC29E78B461BF8013C80
:10372000302B0BF1FF31F8D029E60292FFF764BB92
:103730000C9342E44346392BCDF80480DDF8288011
:10374000DCD0BBF1000F3FF7FAAEFBE67FF4FAAE38
:10375000019BDA077FF5F6AEEDE6294600230A2243
:10376000204600F035FE0E9B002B054608DD1E4668
:1037700055E4019B022B27DC0E9EE2E402218DE53D
:10378000019B022B20DC0E9E49E401230C93FFF7E2
:103790009ABA3FF429ACC0F13C001EE4656A4FF0D0
:1037A0000008C5F804804146204600F0C1FD636A68
:1037B00028604FF0FF36CDF81480D3F800800E96C5
:1037C00001230893FFF7BEBA0E9E42E6E04C0108C3
:1037D000D04D010800207047014900F039B900BF01
:1037E0000D5A00080020704770B54A1E682505FB79
:1037F00002F50E4605F17401FCF750FF044640B196
:1038000000210C30666005F168022160A060FCF7C1
:10381000AFFE204670BD00BF204B70B51D68AB6980
:1038200006465BB348356B68AC68013B05D521E0C3
:10383000013B5A1C04F168041CD0B4F90C20002A86
:10384000F6D100254FF6FF720123E281A381656660
:103850002560A560656025616561A561294608222E
:1038600004F15C00FCF784FE6563A563A564E56470
:10387000204670BD286828B10546D4E7284600F0E8
:103880000FF8CFE704213046FFF7AEFF286000288D
:10389000F2D10C2304463360EAE700BF1C4B010859
:1038A0003D4B3E491A682DE9F04F90424FF000031E
:1038B0008364C364036508BF012383B008BF8361C9
:1038C00081620746FFF7A8FF78603846FFF7A4FF3C
:1038D000B8603846FFF7A0FF7D68F8600024042335
:1038E000AB812C606C60AC606C66EC812C616C61AF
:1038F000AC61214605F15C000822FCF739FEBE6888
:10390000DFF89CB0DFF89CA0DFF89C90DFF89C808B
:10391000C5F824B001230922C5F828A0C5F82C90C9
:10392000C5F830802D622146F381B2813460746025
:10393000B460746634617461B46106F15C0008229D
:103940000193FCF715FEFD68366212200222C6F8CC
:1039500024B0C6F828A0C6F82C90C6F830802146BE
:10396000A881EA812C606C60AC606C662C616C6133
:10397000AC6105F15C000822FCF7FAFD019B2D62A9
:10398000C5F824B0C5F828A0C5F82C90C5F830803B
:10399000BB6103B0BDE8F08F1C4B0108D9370008AC
:1039A000655300088D530008C9530008E953000807
:1039B000024B0349186800F04BB800BF1C4B0108CC
:1039C0000D5A0008836903B96AE77047704700BF62
:1039D000704700BF704700BF704700BF024B0349EC
:1039E000186800F00FB800BF04000020E537000899
:1039F000024B0349186800F005B800BF040000201E
:103A0000D53700082DE9F04110F148071BD0884652
:103A100000267D68BC68013D0FD4A389012B05F108
:103A2000FF3506D9B4F90E300133204601D0C04726
:103A300006436B1C04F16804EFD13F68002FE8D106
:103A40003046BDE8F0813E463046BDE8F08100BF1B
:103A50002DE9F84310F148071FD0884606464FF07D
:103A600000097D68BC68013D11D4A389012B05F1D3
:103A7000FF3508D9B4F90E3001332146304602D063
:103A8000C04749EA00096B1C04F16804EDD13F68A6
:103A9000002FE6D14846BDE8F883B9464846BDE860
:103AA000F88300BFF0B505694B11AB422ADA00F18B
:103AB000140711F01F0107EB850507EB830626D0DD
:103AC00057F82320341DA54222FA01F2C1F1200C3F
:103AD00032D9BE46236803FA0CF313434EF8043B75
:103AE00054F8042BA54222FA01F2F3D8AB1B053B94
:103AF00023F0030304333B441A6002B10433DB1B9D
:103B00009B1015E00023036100234361F0BDB54223
:103B1000F8D900F11002334653F8041B42F8041F91
:103B20009D42F9D8F3432B4423F0030304339B1045
:103B30000361002BE8D0F0BD3B46DDE72DE9F04FF7
:103B40008BB0894603920893059000F08BFB0368C5
:103B5000029318461C46FDF793FED9F800300090FA
:103B60009A782118302A11F801BC40F0AA81033359
:103B70004FF000081C4613F8012B302A08F1010809
:103B8000F8D0B34EB35C002B00F0ED8023784FF0FB
:103B9000000AF35C5546274623B117F8013FF35C52
:103BA000002BFAD1009A02993846FDF7D7FE00287B
:103BB00000F091803B78002D00F07281ED1BAA008F
:103BC0000192502B00F09080702B00F08D803D46CC
:103BD000C9F80070BAF1000F40F0B5802B1B013B13
:103BE000072B514604DD5B10072B01F10101FADCC4
:103BF000059800F09DFB03461433AC4204900793F4
:103C000080F0D0819946009B0027C3F10103B8469C
:103C100006930FE0202F00F09F803A46043715F8F6
:103C2000013CF35C554603F00F039340A54248EA7C
:103C3000030815D915F8013C5B4505F1FF3AE9D1B8
:103C4000069B5344A342E5D31846009A0299099370
:103C5000FDF784FE099B0028DCD11D46A542E9D86A
:103C600049F8048B079B049AA9EB03094FEAA903BF
:103C7000136140464FEA431900F036FC039B1D6870
:103C8000A9EB0000A84200F3E580C0F20B810026FA
:103C9000039B019A9B689A4200F3988003980199CC
:103CA0004368994280F2B7805C1AA54200F30D8107
:103CB000C268022A00F07D81032A00F05A81012A9D
:103CC00000F07B810499059800F066FB149A0023AC
:103CD000136050243CE0002D00F017813B786DE725
:103CE000002301934FF0010A7B782B2B00F0AE806C
:103CF0002D2B77D0791C0025F35C5A1E182A3FF62D
:103D000066AF4A78B25C501E1828A3F1100301F187
:103D100001010BD811F8010F03EB830302EB4303FE
:103D2000325C501E1828A3F11003F3D905B15B4291
:103D3000019A3D461A440F460192C9F80070BAF143
:103D4000000F3FF44BAFB8F1000F0CBF0624002466
:103D500020460BB0BDE8F08F00220427C9F8008090
:103D6000B94490465BE7009D02992A462046FDF73C
:103D7000F5FD00283AD022782746502AB0D0702A84
:103D8000AED0C9F80070DEE7049B9B689E4280F2CB
:103D90003581079B3246049800EB82014FF0010EFB
:103DA0000132022C0261C1F814E000F01581964244
:103DB00080F2408101210498FFF774FE039B019A71
:103DC0009B6801329A42019240F3CF800598049992
:103DD00000F0E2FAA324149A0023204613600BB0EB
:103DE000BDE8F08F0125BB78B91C85E7625DB35C47
:103DF0006719002BC1D0302A3C4604D114F8013F8A
:103E0000302BFBD0F35CB3FA83FA3D464FEA5A1AE3
:103E10004FF00108BFE6012466B1039BDB68022B6B
:103E200000F08180032B00F08280012B00F0B18034
:103E300044F01004149B1A46049B1360089B1A4616
:103E4000019B136020460BB0BDE8F08F0025CAE748
:103E5000D04B0108441B2146049800F0D3FE0646CF
:103E6000B0B1621E5111079802F01F0350F82110E3
:103E7000012606FA03F30B420AD0B24240F39780C0
:103E8000A11E049800F0BEFE002800F090800326DA
:103E9000019B0498234421460193FFF703FEF7E6B4
:103EA00001958EE62C1A04990598224600F064FCD0
:103EB000019B04901B1B01930346143307930026B8
:103EC000E6E69C1C4FF000085BE6671E002E4ED114
:103ED00027B13946049800F095FE06467B11079AF3
:103EE000049852F8232007F01F07012303FA07F76D
:103EF0001742214618BF46F00206FFF7D3FD039B89
:103F00005B6801932D1B022486E700997B5CF25CC1
:103F10007D182F46002A3FF451AE17F8013FF25C9E
:103F2000002AFAD14AE6159BC3F101031593159BAC
:103F3000002B3FF47DAF049B079A1E69B700134620
:103F400002EB070E1146002004E043F8040B9E45E7
:103F50007FF61AAF1A68B2F1FF3FF6D00132022C99
:103F60001A603AD015F01F053ED1212462E70126E0
:103F7000B4E7159A002A3FF4A5AE08990B60079B99
:103F8000049901220A611A60149B1A466224116086
:103F9000DEE6B2077FF54CAF079B1B681E43F307B5
:103FA000C9D445E7DDF81C904FF0000858E602261A
:103FB0006EE7159A002AE0D084E6A5427FF482AE2F
:103FC000012DDADD691E049800F01CFE00283FF484
:103FD00079AE039B5B68D0E71946039B1B68013BE6
:103FE0009D4229D0222425E7CB19C5F1200553F89D
:103FF000040C00F079FAA842B7DADBE6049BDDF89E
:10400000149059684846013100F092F904990B69FF
:10401000023380469A000C310C30FCF7ABF904995E
:10402000484600F0B9F9CDF8108008F11403D8F82B
:104030001020B0E6194695E76B1105F01F0551F801
:1040400023200123AB40134214BF21242224F1E694
:1040500030B4046808E014F8013FA3F14105192DBC
:1040600098BF2033934208D111F8012B002AF2D1D6
:1040700001340460012030BC7047002030BC704720
:104080002DE9F04F0B68DFF8789185B0591102EBFC
:10409000810113F01F0301911CBF04310191019CA8
:1040A00002900393002344F8043C19469A469E4626
:1040B000029B1D686B78A4F1040CE04660466E1C00
:1040C0002BB319F80340002C44D1202B60D8D645DF
:1040D00018DD404513D2072911DCC1F10801890020
:1040E0000568C1F1200B03465F6807FA0BF42C4307
:1040F00027FA01F51C6043F8045F9845F4D8904214
:104100003CD8082135466B786E1C002BD9D1BEF106
:10411000000F3FD0404501D207295DDD90423DD9D7
:10412000134650F8041B43F8041B8445F9D20021C0
:1041300043F8041B9C45FBD2019B53F8043C2BB96C
:1041400062453CD05CF8043D002BF9D0052005B059
:10415000BDE8F08F013108290EF1010E06DD904215
:10416000D0D9002340F8043C01210438036804F04E
:104170000F0444EA031404603546C4E70023A0F1A9
:10418000040840F8043CF246404619463546BAE772
:10419000292B1AD0042005B0BDE8F08F039B002B1B
:1041A000CAD0019C039B54F8040CC3F120034FF0C8
:1041B000FF3121FA03F3034044F8043CBFE7012335
:1041C0000520136005B0BDE8F08F029B02351D602D
:1041D000BEF1000F9ED1DDE7C1F108039B00056829
:1041E000C3F1200701464E6806FA07F42C4326FA6D
:1041F00003F50C6041F8045F8845F4D88EE700BFF2
:10420000D04B0108B2B110B50B491046144601F06D
:10421000FBF808B9094810BD0849204601F0F4F838
:104220000028F7D02046064901F0EEF80028F1D02A
:10423000002010BD0148704754720108F071010858
:10424000E85201080048704768000020014B186AD6
:10425000704700BF68000020004870478C000020B5
:104260000020704700487047AC000020024B0A460F
:1042700001461868FFF7C6BF0400002000487047D9
:10428000AC00002000000000000000000000000062
:1042900001F0FF01102A2BDB10F0070F08D010F8F7
:1042A000013B013A8B422DD010F0070F42B3F6D1FB
:1042B000F0B441EA012141EA014122F007047FF014
:1042C00000070023F0E80256083C85EA010586EA6B
:1042D000010685FA47F5A3FA87F586FA47F6A5FAA7
:1042E00087F68EB9EED1F0BC01F0FF0102F00702B3
:1042F00032B110F8013B013A83EA010313B1F8D15E
:104300000020704701387047002D06BF354603383E
:10431000073815F0010F07D1013015F4807F02BF77
:10432000013015F4C03F0130F0BC0138704700BFC8
:1043300070B5446A06460D465CB1E36893B153F824
:104340002500D8B1026843F8252000230361C3602B
:1043500070BD1020FBF7CEFF706244608460046083
:10436000C460044621220421304600F07BFC736ABD
:10437000E060DB68002BE2D1002070BD012101FA72
:1043800005F4621D3046920000F06CFC0028F3D06A
:1043900045608460D9E700BF30B5456A83B0044604
:1043A00055B139B1636A4A68DB6853F82200086086
:1043B00043F8221003B030BD10200191FBF79AFFA3
:1043C00001996062456085600560C560E9E700BFEE
:1043D000F0B50C6983B00D46064601F1140E0027B6
:1043E000DEF8000081B202FB0133010C180C02FB65
:1043F00001019BB2013703EB0143BC424EF8043B81
:104400004FEA1143ECDC3BB1AA68944207DA05EBB2
:104410008402013453612C61284603B0F0BD696801
:10442000019301313046FFF783FF2A69023205F11B
:104430000C01074692000C30FBF79CFF29463046E2
:10444000FFF7AAFF3D46019BE1E700BF2DE9F843D6
:10445000244C089E1F46083384FB034EDB17C3EB36
:104460006E0EBEF1010F05460C46904635DD012368
:1044700000215B009E4501F10101FADC2846FFF7AF
:1044800057FF0123B8F1090F4661036121DD04F1F3
:1044900009094E46444416F8013B0146303B0A22C6
:1044A0002846FFF795FFA642F5D1A8F108044C4431
:1044B000474514DDA7EB0807274414F8013B0146E4
:1044C000303B0A222846FFF783FFA742F5D1BDE81B
:1044D000F8830A344FF00908EAE70021CEE7BDE887
:1044E000F88300BF398EE338020C12040346B2B9D8
:1044F0000304102013F07F4F04BF1B02083013F099
:10450000704F04BF1B01043013F0404F04BF9B00E9
:104510000230002B02DB5B0003D420207047002018
:10452000E8E70130704700BF036813F00702014657
:1045300007D0DA0721D4980721D49B080B6002200A
:10454000704798B298B1104613F0FF0F04BF1B0AD2
:1045500008301A0704BF1B0904309A0704BF9B08E0
:104560000230DA0707D45B0804D1202070471B0C07
:104570001020E9E701300B607047002070475B08AE
:104580000B600120704700BF10B50C460121FFF7FA
:10459000CFFE01224461026110BD00BF2DE9F04F42
:1045A0000C691569AC4283B08B46164604DA224684
:1045B000B3462C460E461546DBF80830DBF80410EF
:1045C00004EB05089845C8BF0131FFF7B1FE00F1C3
:1045D000140909EB880AD145009005D24B46002109
:1045E00043F8041B9A45FBD806F1140C0CEB850329
:1045F0000BF1140B9C450BEB840E4CD2CDF804A0B0
:104600009A46DCF80050AFB2EFB100214D465E464D
:104610000C4656F8042B286893B281B207FB0313AB
:10462000120C010C234407FB021101EB13419BB256
:1046300043EA0143B64545F8043B4FEA1144E8D844
:104640002C60DCF800502D0C1DD0D9F80030484605
:104650001C46594600220E88240C05FB06442244C1
:104660009BB243EA024340F8043B51F8043B046820
:104670001B0CA6B205FB036303EB12438E454FEA06
:104680001342E8D803600CF1040CE24509F1040977
:10469000B7D8DDF804A0B8F1000F0BDD5AF8043CE0
:1046A000AAF1040A1BB105E05AF8043D13B9B8F1A8
:1046B0000108F9D10098C0F8108003B0BDE8F08F70
:1046C0002DE9F04312F0030383B0144607462DD1C1
:1046D0000E46A4101CD07B6A8BB39D68002D39D088
:1046E000E3074FF0000906D4641011D0286898B190
:1046F0000546E307F8D531462A463846FFF74EFF10
:10470000314680463846FFF747FE64104646EDD1F5
:10471000304603B0BDE8F0832A4629463846FFF705
:104720003DFF2860C0F800900546E2E75A1E114D93
:10473000002355F82220FFF74BFE0646C9E710205C
:104740000193FBF7D7FD019B7862436083600360B0
:10475000C3600346012138460193FFF7E9FD019B41
:104760000546012140F271200022686129619D60A7
:104770002A60B5E7D04C01082DE9F04791460A6957
:104780008B684FEA691A0AEB020808F101049C429F
:104790000D460746496804DD5B009C4201F10101BA
:1047A000FADC3846FFF7C4FDBAF1000F064600F107
:1047B000140332DD03EB8A01002243F8042B8B4201
:1047C000FBD1286905F1140319F01F0903EB800ED2
:1047D0001BD0C9F1200C0022186800FA09F0104320
:1047E00041F8040B53F8042B9E4522FA0CF2F3D83F
:1047F0000A600AB108F10204013C384634612946D6
:10480000FFF7CAFD3046BDE8F087043953F8042BA2
:1048100041F8042F9E45F9D8EEE71946D1E700BFCD
:1048200030B40B6905460069C01A0FD19B001435DE
:10483000143119442B4401E09D4207D253F8044D32
:1048400051F8042D9442F7D002D3012030BC7047B8
:104850004FF0FF30FAE700BF2DE9F0410F690E4637
:1048600011697F1A002F904617D1890006F11405AF
:1048700002F1140E6B18714401E09D425CD253F8B2
:10488000042D51F8044DA242F7D05ED233462C4697
:10489000464675469846012705E058DB06F11405A3
:1048A00008F1140400277168FFF742FDD8F81030B2
:1048B0003669C76004EB830CA64605EB860700F15A
:1048C000140400235EF8041B55F8048B8AB213FA13
:1048D00088F3090C9A1AC1EB184303EB224392B2F6
:1048E00042EA0342F44544F8042B4FEA2343E9D853
:1048F000AF4217D9A446AE465EF8042B13FA82F3F2
:10490000191401EB12419BB243EA014277454CF87E
:10491000042B4FEA2143EFD8ED432F4427F0030740
:1049200004373C44043C22B954F8043D013E002BBA
:10493000FAD00661BDE8F0810021FFF7F9FC012201
:10494000002302614361BDE8F0817446ABE7334662
:1049500006F1140402F11405164601279846A2E751
:10496000134B10EE902A1A40A2F15073002B04DD75
:104970000020194641EC100B70475B421B15132BAE
:104980000DDD143B1E2BDDBFC3F11F03012202FA14
:1049900003F301230021184641EC100B70474FF43C
:1049A0000022002042FA03F141EC100B704700BFD7
:1049B0000000F07FF8B5046900F1140606EB8404EA
:1049C00054F8045C2846FFF78FFDC0F120030A2845
:1049D0000B60A4F1040117DC8E42C0F10B0738BF55
:1049E00054F8081C25FA07FE00F115004EF07F531D
:1049F00034BFF940002105FA00F043F4401340EAC7
:104A0000010243EC102BF8BD8E421DD20B3854F836
:104A1000087C1CD0854045F07F55C0F1200CA4F1E6
:104A2000080E45F4401527FA0CF1764545EA0103D6
:104A30001ED254F80C1C07FA00F021FA0CF10843BE
:104A4000024643EC102BF8BD0B3808D1074645F061
:104A50007F5343F440133A4643EC102BF8BD05FA5C
:104A600000F040F07F53002043F440130246E8E793
:104A700007FA00F00246E4E72DE9F04357EC106B2B
:104A800083B0884601213C46C7F30A551746FFF715
:104A90004FFCC4F3130481460DB144F48014019417
:104AA0001EB302A840F8086DFFF73EFD002834D180
:104AB0009DE80C00C9F81420002B0CBF0121022135
:104AC000C9F81830C9F81010DDB909EB8103A0F25C
:104AD0003240C8F800001869FFF706FDC0EB41102E
:104AE0003860484603B0BDE8F08301A8FFF71CFD1D
:104AF000019BC9F8143001212030C9F81010002D95
:104B0000E3D0A5F233450544C0F13500C8F80050A4
:104B10003860484603B0BDE8F0839DE80A00C0F164
:104B2000200203FA02F20A43C3400193C9F8142099
:104B3000C2E700BF30B587B00C4604A90546FFF7B1
:104B400039FF204605A98DED000BFFF733FF2069E3
:104B50002969049A059B091AD31A03EB41138DEDB9
:104B6000020B002BDDE90001DDE902450BDD01EB65
:104B70000351CDE900019DED007B9DED026B87EEB9
:104B8000060B07B030BDC3EB033305EB0355CDE98E
:104B90000245F0E7172808DDB7EE000BB2EE047B04
:104BA000013820EE070BFBD17047034B03EBC0002D
:104BB00090ED040B704700BFD04C010870B414692D
:104BC0004E1E02F11403761103EB840101368B4271
:104BD00000EB86060CD2041F53F8045B44F8045F14
:104BE0009942F9D88B1A153B23F003030433184478
:104BF000864204D9002340F8043B8642FBD870BCAF
:104C0000704700BF03694A11934210B400F11404C5
:104C100010DA04EB83039C4221D253F8040C043BCA
:104C200018B115E053F8042D92B99C42FAD35DF8FF
:104C3000044B704710DD11F01F010DD054F8220015
:104C400020FA01F303FA01F1884204EB8203E2D077
:104C500001205DF8044B704704EB8203DBE7002082
:104C6000E5E700BF38B502FB01F42146FBF716FD6E
:104C7000054618B122460021FBF77AFC284638BDCC
:104C80002DE9F0478E689E420C461D46174628D8EF
:104C90008046888910F4906F32D04E692368096984
:104CA00006EB4606A3EB010906EBD6766B1C7610E5
:104CB0004B44B342324684BF1E463246430522D59A
:104CC00011464046FBF7EAFC824680B34A4621691A
:104CD000FBF750FBA38923F4906343F08003A38187
:104CE00016E008681E462A463946FBF7DDFBA26837
:104CF0002368961B2B44A66023600020BDE8F08744
:104D000008683546EFE7404601F0C4F8824650B1E6
:104D1000A6EB09030AEB09006661C4F810A0206045
:104D2000A3602E46DFE721694046FBF76FFC0C23AA
:104D3000C8F80030A38943F04003A3814FF0FF304F
:104D4000BDE8F0872DE9F04F936883B09046002BC3
:104D500070D082460C4617688D68086842E0A389C7
:104D600013F4906F2ED06569216905EB4505A0EB22
:104D7000010B05EBD5750BF101006D103044A84215
:104D80002A4684BF05462A465B0538D5114650465B
:104D9000FBF784FC00283CD05A4621690190FBF7C0
:104DA000E9FAA289019B22F4906242F08002A2817A
:104DB000A5EB0B0203EB0B00656123612060A26091
:104DC0003546B3465A464946FBF76EFBD8F80830DD
:104DD000A2682068551B58449E1BA5602060C8F837
:104DE00008603EB37E683B460837002EFAD0AE42DC
:104DF000D3F80090AB46B2D23546B346E2E7504610
:104E000001F048F803460028D2D121695046FBF74B
:104E1000FDFB0C23CAF80030A389002243F04003B5
:104E20004FF0FF30A381C8F80820C8F8042003B071
:104E3000BDE8F08F0020C8F8040003B0BDE8F08F93
:104E40002DE9F04F14468A899DB0150689460393D3
:104E5000824603D50B69002B00F0EB8030238DF8E0
:104E60002A3023787C4E0022202109928DF82910C7
:104E70000127002B00F08480252B254603D117E065
:104E8000252B00F0878015F8013F002BF8D1B5EBFA
:104E9000040B75D022465B4649465046FFF7F0FEAC
:104EA00001306DD0099B2A785B440993002A67D0B2
:104EB00000234FF0FF3201350493079306938DF8DA
:104EC00053301A93059204E0049A07FA03F313434C
:104ED0000493297805223046FFF7DAF92C46831B24
:104EE00001350028F0D1049BD90644BF20228DF85B
:104EF000532021781A0744BF2B228DF853202A29EA
:104F00006BD0A1F13002092A0BD8079B14F8011FBE
:104F100003EB830302EB4303A1F13002092AF5D925
:104F200007932E2941D04D4D03222846FFF7B0F9B3
:104F300038B1049B401B402202FA00F003430134C5
:104F40000493217846488DF8281006220134FFF793
:104F50009FF900284BD0434B03B303AB00934A4661
:104F6000414B04A95046FBF7BDFC8046B8F1FF3F1A
:104F700006D0099B434409932378002B7FF47CAF30
:104F8000B9F80C305B0654BF09984FF0FF301DB0E4
:104F9000BDE8F08FB5EB040B8AD07BE7039B0733AA
:104FA00023F0070308330393E3E761782A2904F128
:104FB000010026D0A1F130020023092A05930446FE
:104FC000B1D814F8011F03EB830302EB4303A1F1F3
:104FD0003002092AF5D90593A5E7039A116804322E
:104FE000002903921FDB07916178013499E703AB35
:104FF00000934A461C4B04A95046FBF797FF804696
:10500000B4E7039B1A680592002A03F10403039393
:10501000B8BF4FF0FF3204F10203AEBFA178A17810
:1050200005921C467FE7494243F00203079104932F
:10503000DAE74021FBF732FBC9F80000C9F810009D
:1050400018B14023C9F8143008E70C23CAF800301F
:105050004FF0FF309BE700BF6072010868720108E3
:105060006C720108E5080008814C00089368013B58
:10507000002B10B4936008DBCCB21368581C10608E
:10508000197020465DF8044B70479469A34202DB17
:10509000CCB20A2CF1D15DF8044B00F01FBB00BF6D
:1050A00093B1F8B514460F460646D51801E0AC4258
:1050B00008D03A4614F8011B3046FFF7D7FF431CCF
:1050C000F5D1F8BD0020F8BD00207047936810B5F9
:1050D000144613B95360184610BD00F0DBFC0023E2
:1050E000A360636010BD00BF2DE9F04F9DB08946FD
:1050F00014460393824618B18369002B00F00A819D
:105100008A4B994500F00C81894B994500F00B8141
:10511000884B994508BFDAF80C90B9F80C3018079D
:1051200040F1EE80D9F81030002B00F0E9803023F8
:105130008DF82A302378804E0021202209918DF8A5
:1051400029200127002B00F08480252B254603D140
:1051500017E0252B00F0858015F8013F002BF8D1D2
:10516000B5EB040B75D022465B4649465046FFF727
:1051700097FF01306DD0099B2A785B440993002A80
:1051800067D000234FF0FF32013504930793069355
:105190008DF853301A93059204E0049A07FA03F34A
:1051A00013430493297805223046FFF771F82C4603
:1051B000831B01350028F0D1049BD90644BF20226F
:1051C0008DF8532021781A0744BF2B228DF85320E5
:1051D0002A2969D0A1F13002092A0BD8079B14F8BB
:1051E000011F03EB830302EB4303A1F13002092A01
:1051F000F5D907932E293FD0504D03222846FFF7BB
:1052000047F838B1049B401B402202FA00F00343E8
:105210000134049321784A488DF82810062201347D
:10522000FFF736F8002849D0464BF3B103AB0093A3
:105230004A46454B04A95046FBF754FB8046B8F15B
:10524000FF3F06D0099B434409932378002B7FF44A
:105250007CAFB9F80C305B0659D409981DB0BDE895
:10526000F08FB5EB040B8CD07DE7039B073323F065
:10527000070308330393E5E761782A2904F1010065
:1052800026D0A1F130020023092A05930446B3D8A1
:1052900014F8011F03EB830302EB4303A1F1300277
:1052A000092AF5D90593A7E7039A11680432002962
:1052B00003921FDB0791617801349BE703AB0093F6
:1052C0004A46214B04A95046FBF730FE8046B6E71C
:1052D000039B1A680592002A03F104030393B8BFE5
:1052E0004FF0FF3204F10203AEBFA178A17805921E
:1052F0001C4681E7494243F0020307910493DAE731
:105300004946504600F062FA00283FF410AF4FF0D3
:10531000FF30A3E7FEF756FB044B99457FF4F4AE4C
:10532000DAF80490F9E6DAF80890F6E6B04B0108EE
:10533000904B0108704B0108607201086872010807
:105340006C720108E5080008A150000810B4044C74
:1053500013460A46014620685DF8044BFFF7C4BEB9
:105360000400002010B50C46B1F90E1000F0BAFD93
:10537000002803DB636D0344636510BDA38923F438
:105380008053A38110BD00BF002070472DE9F0417C
:105390001646B1F90C201F46D3050C46054607D525
:1053A00000220223B1F90E1000F0ECFCB4F90C203D
:1053B000B4F90E1022F48052A2813B4632462846B0
:1053C000BDE8F04100F0ECB910B50C46B1F90E1093
:1053D00000F0D8FCA389421C0EBF23F4805343F491
:1053E00080536065A38110BDB1F90E1000F068BA5A
:1053F00000000000000000000000000000000000AD
:10540000A2EB0300704700BF02780B78012A28BF87
:105410009A42F5D16DE9044540EA0104CDE90267FD
:105420006FF0000C4FEA447212B380EA010414F0EA
:10543000070F6AD100F0070420F0070004F003050D
:1054400021F007014FEAC505F0E8042314F0040F2A
:10545000F1E804670CFA05F462EA040266EA04065D
:105460000AD063EA0403624667EA0407664603E07B
:10547000F0E80423F1E8046782FA4CF582EA0604B6
:10548000A4FA8CF46CBB83FA4CF583EA0705A5FA01
:105490008CF595B950E9022351E9026782FA4CF57F
:1054A00082EA0604A4FA8CF483FA4CF583EA070531
:1054B000A5FA8CF52543DBD09CB92DBAB5FA85F455
:1054C00024F0070427FA04F1DDE9026723FA04F364
:1054D00003F0FF0001F0FF01FDE80445A0EB01002F
:1054E000704724BAB4FA84F424F0070426FA04F1CD
:1054F000DDE9026722FA04F202F0FF0001F0FF0189
:10550000FDE80445A0EB0100704714F0030F3CD107
:1055100010F0030428D150F8082B51F8083B82FA08
:105520004CF582EA0305A5FA8CF55DB950F8042C18
:1055300051F8043C82FA4CF582EA0305A5FA8CF591
:10554000002DE8D02DBAB5FA85F424F0070423FA2B
:1055500004F122FA04F202F0FF0001F0FF01FDE87D
:105560000445A0EB010070474FEAC40420F003009B
:1055700050F8082B21F0030151F8083B0CFA04F411
:1055800062EA040263EA0403C9E710F003041AD0D4
:10559000A1EB040120F00300E40750F8042B06D02F
:1055A0000FD28B785FFAA2F4E41A06D12BB1CB7834
:1055B0005FFAB2F4E41A00D11BB920465DF8104B33
:1055C000704701F1040150F8042BCC0721F00301CE
:1055D00051F8043B48D824D222F07F4482FA4CF59B
:1055E00094EA1325A5FA8CF50AD165B951F8043B64
:1055F00084EA0204B4EB036F0ED150F8042BEBE7FE
:105600004FEA132355E035F07F454DD10878FDE88A
:105610000445C0F1000070474FEA126203F0FF0337
:1056200047E002EA1C4482FA4CF594EA1345A5FAD5
:105630008CF50AD165B951F8043B84EA0204B4EB55
:10564000034F0CD150F8042BEBE74FEA134330E043
:1056500015EA1C4528D10B884FEA124229E04FEA8F
:10566000124203EA1C4324E002F0FF0482FA4CF5E4
:1056700094EA1365A5FA8CF50AD165B951F8043B93
:1056800084EA0204B4EB032F09D150F8042BEBE7B2
:105690004FEA13630DE015F0FF0F05D10B684FEAD9
:1056A000122223F07F4304E04FF00000FDE80445A0
:1056B000704712BA1BBA82FA4CF482EA0304A4FAC5
:1056C0008CF5B5FA85F402FA04F203FA04F34FEA12
:1056D0001260FDE80445A0EB13607047F8B50D4675
:1056E0001446064610B18369002B42D0254B9C42DC
:1056F00044D0254B9C4243D0244B9C4208BFF468C5
:10570000A389A269A2601A0722D5236903B322687C
:105710006169D31AEDB28B422F4621DA0133A168B9
:10572000501C0139A1602060157062699A4206D050
:10573000A389DB0701D50A2D01D03846F8BD2146E3
:10574000304600F063F90028F7D04FF0FF37F4E758
:105750002146304600F03AF80028F6D12369D6E712
:105760002146304600F052F90028EED1226801238C
:10577000D5E7FEF727F9034B9C42BAD17468BFE71F
:10578000B468BDE7B04B0108904B0108704B0108AD
:10579000024B0A4601461868FFF7A0BF040000202C
:1057A00070B50D46084C114606461A462846002399
:1057B000236000F0EDFC431C00D070BD2368002B7B
:1057C000FBD0336070BD00BF10850020384B70B532
:1057D0001D6806460C4615B1AB69002B42D0354B0F
:1057E0009C4245D0344B9C4258D0344B9C4208BF1D
:1057F000EC68B4F90C2093B219070CD52069A8B154
:1058000013F001021ED0636900225B42A361A26013
:10581000F0B1002070BDDD0642D558072AD42069BA
:1058200042F00803A3819BB20028E9D103F420725F
:10583000B2F5007FE4D03046214600F0E7FAA389B4
:105840002069DDE7990758BF6269A2600028E0D1AE
:10585000B4F90C301A06DDD543F04003A3814FF0B4
:10586000FF3070BD2846FEF7ADF8124B9C42B9D10F
:105870006C68BEE7616B51B104F14403994204D0F6
:105880003046FAF7C3FEB4F90C200023636300230B
:105890002069636022F024022060C1E7AC68A8E7B9
:1058A00042F04002092333604FF0FF30A28170BD07
:1058B00004000020B04B0108904B0108704B010818
:1058C00038B5074C002305460846236000F0AEFCBF
:1058D000431C00D038BD2368002BFBD02B6038BDA3
:1058E000108500208B891A072DE9F0410D4680466E
:1058F00033D44A68002A67DDEC6A002C45D00022C8
:10590000D8F80060C8F8002013F4805260D06A6DA7
:105910005F0705D569686B6B521A0BB12B6CD21AF5
:105920000023296A4046A047441C39D0AB892A6924
:105930002A60DB044FF000026A6043D4696BC8F848
:10594000006011B305F14403994202D04046FAF7D2
:105950005DFE00206863BDE8F0810E69AEB10C68A1
:105960000E6098070CBF4B690023A41B8B600AE0F4
:1059700023463246AF6A296A4046B8470028A4EB5E
:105980000004064404DD002CF2DC0020BDE8F081B8
:10599000AB8943F04003AB814FF0FF30BDE8F081AD
:1059A000D8F800201D2AF3D8174BD340DB4313F05F
:1059B0000103EDD1A9892C696B60C9042C60BDD5A8
:1059C000002ABBD16865B9E70A6C002A94DCDCE7E1
:1059D0000123296A4046A047431C024602D0AB89F6
:1059E000EC6A95E7D8F80030002BF8D01D2B01D0D9
:1059F000162B02D1C8F80060C7E7AB8943F040031B
:105A0000AB81BDE8F08100BF010040200B6933B3DA
:105A100010B5044682B008B18369ABB1114B99420D
:105A200019D0114B994218D0104B994208BFE16828
:105A3000B1F90C3013B9002002B010BD204602B0FD
:105A4000BDE81040FFF74EBF0191FDF7BBFF019984
:105A5000044B9942E5D16168EAE7A168E8E70020D4
:105A6000704700BFB04B0108904B0108704B010814
:105A700020B1054B01461868FFF7C8BF034B044926
:105A80001868FDF7E5BF00BF040000201C4B0108AB
:105A90000D5A00089368002B73D02DE9F04F8B89C5
:105AA00083B00C4619070090164626D5226922B30A
:105AB00013F0020035682CD04FF00009B04FC846F3
:105AC000B246B84543464A4628BF3B460098B8F11F
:105AD000000F50D0216AA66AB047002858DDDAF8D6
